{
  "contractName": "SolnSquareVerifier",
  "abi": [
    {
      "inputs": [
        {
          "internalType": "address",
          "name": "verifierAddress",
          "type": "address"
        },
        {
          "internalType": "string",
          "name": "name",
          "type": "string"
        },
        {
          "internalType": "string",
          "name": "symbol",
          "type": "string"
        }
      ],
      "payable": false,
      "stateMutability": "nonpayable",
      "type": "constructor"
    },
    {
      "anonymous": false,
      "inputs": [
        {
          "indexed": true,
          "internalType": "address",
          "name": "owner",
          "type": "address"
        },
        {
          "indexed": true,
          "internalType": "address",
          "name": "approved",
          "type": "address"
        },
        {
          "indexed": true,
          "internalType": "uint256",
          "name": "tokenId",
          "type": "uint256"
        }
      ],
      "name": "Approval",
      "type": "event"
    },
    {
      "anonymous": false,
      "inputs": [
        {
          "indexed": true,
          "internalType": "address",
          "name": "owner",
          "type": "address"
        },
        {
          "indexed": true,
          "internalType": "address",
          "name": "operator",
          "type": "address"
        },
        {
          "indexed": false,
          "internalType": "bool",
          "name": "approved",
          "type": "bool"
        }
      ],
      "name": "ApprovalForAll",
      "type": "event"
    },
    {
      "anonymous": false,
      "inputs": [
        {
          "indexed": true,
          "internalType": "address",
          "name": "triggedEventAddress",
          "type": "address"
        },
        {
          "indexed": false,
          "internalType": "bool",
          "name": "newValue",
          "type": "bool"
        }
      ],
      "name": "PausedAndUnpaused",
      "type": "event"
    },
    {
      "anonymous": false,
      "inputs": [
        {
          "indexed": false,
          "internalType": "uint256",
          "name": "solutionIndex",
          "type": "uint256"
        },
        {
          "indexed": false,
          "internalType": "address",
          "name": "solutionAddress",
          "type": "address"
        }
      ],
      "name": "SolutionAdded",
      "type": "event"
    },
    {
      "anonymous": false,
      "inputs": [
        {
          "indexed": false,
          "internalType": "uint256",
          "name": "tokenId",
          "type": "uint256"
        },
        {
          "indexed": false,
          "internalType": "address",
          "name": "to",
          "type": "address"
        }
      ],
      "name": "TokenMint",
      "type": "event"
    },
    {
      "anonymous": false,
      "inputs": [
        {
          "indexed": true,
          "internalType": "address",
          "name": "from",
          "type": "address"
        },
        {
          "indexed": true,
          "internalType": "address",
          "name": "to",
          "type": "address"
        },
        {
          "indexed": true,
          "internalType": "uint256",
          "name": "tokenId",
          "type": "uint256"
        }
      ],
      "name": "Transfer",
      "type": "event"
    },
    {
      "anonymous": false,
      "inputs": [
        {
          "indexed": true,
          "internalType": "address",
          "name": "oldOwner",
          "type": "address"
        },
        {
          "indexed": true,
          "internalType": "address",
          "name": "newOwner",
          "type": "address"
        }
      ],
      "name": "TransferOwnership",
      "type": "event"
    },
    {
      "constant": true,
      "inputs": [
        {
          "internalType": "bytes32",
          "name": "_myid",
          "type": "bytes32"
        },
        {
          "internalType": "string",
          "name": "_result",
          "type": "string"
        }
      ],
      "name": "__callback",
      "outputs": [],
      "payable": false,
      "stateMutability": "pure",
      "type": "function"
    },
    {
      "constant": true,
      "inputs": [
        {
          "internalType": "bytes32",
          "name": "_myid",
          "type": "bytes32"
        },
        {
          "internalType": "string",
          "name": "_result",
          "type": "string"
        },
        {
          "internalType": "bytes",
          "name": "_proof",
          "type": "bytes"
        }
      ],
      "name": "__callback",
      "outputs": [],
      "payable": false,
      "stateMutability": "pure",
      "type": "function"
    },
    {
      "constant": false,
      "inputs": [
        {
          "internalType": "address",
          "name": "to",
          "type": "address"
        },
        {
          "internalType": "uint256",
          "name": "tokenId",
          "type": "uint256"
        }
      ],
      "name": "approve",
      "outputs": [],
      "payable": false,
      "stateMutability": "nonpayable",
      "type": "function"
    },
    {
      "constant": true,
      "inputs": [
        {
          "internalType": "address",
          "name": "owner",
          "type": "address"
        }
      ],
      "name": "balanceOf",
      "outputs": [
        {
          "internalType": "uint256",
          "name": "",
          "type": "uint256"
        }
      ],
      "payable": false,
      "stateMutability": "view",
      "type": "function"
    },
    {
      "constant": true,
      "inputs": [],
      "name": "baseTokenURI",
      "outputs": [
        {
          "internalType": "string",
          "name": "",
          "type": "string"
        }
      ],
      "payable": false,
      "stateMutability": "view",
      "type": "function"
    },
    {
      "constant": true,
      "inputs": [
        {
          "internalType": "uint256",
          "name": "tokenId",
          "type": "uint256"
        }
      ],
      "name": "getApproved",
      "outputs": [
        {
          "internalType": "address",
          "name": "",
          "type": "address"
        }
      ],
      "payable": false,
      "stateMutability": "view",
      "type": "function"
    },
    {
      "constant": true,
      "inputs": [],
      "name": "getOwner",
      "outputs": [
        {
          "internalType": "address",
          "name": "",
          "type": "address"
        }
      ],
      "payable": false,
      "stateMutability": "view",
      "type": "function"
    },
    {
      "constant": true,
      "inputs": [
        {
          "internalType": "address",
          "name": "owner",
          "type": "address"
        },
        {
          "internalType": "address",
          "name": "operator",
          "type": "address"
        }
      ],
      "name": "isApprovedForAll",
      "outputs": [
        {
          "internalType": "bool",
          "name": "",
          "type": "bool"
        }
      ],
      "payable": false,
      "stateMutability": "view",
      "type": "function"
    },
    {
      "constant": true,
      "inputs": [],
      "name": "isOwner",
      "outputs": [
        {
          "internalType": "bool",
          "name": "",
          "type": "bool"
        }
      ],
      "payable": false,
      "stateMutability": "view",
      "type": "function"
    },
    {
      "constant": false,
      "inputs": [
        {
          "internalType": "address",
          "name": "to",
          "type": "address"
        },
        {
          "internalType": "uint256",
          "name": "tokenId",
          "type": "uint256"
        }
      ],
      "name": "mint",
      "outputs": [
        {
          "internalType": "bool",
          "name": "",
          "type": "bool"
        }
      ],
      "payable": false,
      "stateMutability": "nonpayable",
      "type": "function"
    },
    {
      "constant": true,
      "inputs": [],
      "name": "name",
      "outputs": [
        {
          "internalType": "string",
          "name": "",
          "type": "string"
        }
      ],
      "payable": false,
      "stateMutability": "view",
      "type": "function"
    },
    {
      "constant": true,
      "inputs": [
        {
          "internalType": "uint256",
          "name": "tokenId",
          "type": "uint256"
        }
      ],
      "name": "ownerOf",
      "outputs": [
        {
          "internalType": "address",
          "name": "",
          "type": "address"
        }
      ],
      "payable": false,
      "stateMutability": "view",
      "type": "function"
    },
    {
      "constant": false,
      "inputs": [],
      "name": "renounceOwnership",
      "outputs": [],
      "payable": false,
      "stateMutability": "nonpayable",
      "type": "function"
    },
    {
      "constant": false,
      "inputs": [
        {
          "internalType": "address",
          "name": "from",
          "type": "address"
        },
        {
          "internalType": "address",
          "name": "to",
          "type": "address"
        },
        {
          "internalType": "uint256",
          "name": "tokenId",
          "type": "uint256"
        }
      ],
      "name": "safeTransferFrom",
      "outputs": [],
      "payable": false,
      "stateMutability": "nonpayable",
      "type": "function"
    },
    {
      "constant": false,
      "inputs": [
        {
          "internalType": "address",
          "name": "from",
          "type": "address"
        },
        {
          "internalType": "address",
          "name": "to",
          "type": "address"
        },
        {
          "internalType": "uint256",
          "name": "tokenId",
          "type": "uint256"
        },
        {
          "internalType": "bytes",
          "name": "_data",
          "type": "bytes"
        }
      ],
      "name": "safeTransferFrom",
      "outputs": [],
      "payable": false,
      "stateMutability": "nonpayable",
      "type": "function"
    },
    {
      "constant": false,
      "inputs": [
        {
          "internalType": "address",
          "name": "to",
          "type": "address"
        },
        {
          "internalType": "bool",
          "name": "approved",
          "type": "bool"
        }
      ],
      "name": "setApprovalForAll",
      "outputs": [],
      "payable": false,
      "stateMutability": "nonpayable",
      "type": "function"
    },
    {
      "constant": false,
      "inputs": [
        {
          "internalType": "bool",
          "name": "newValue",
          "type": "bool"
        }
      ],
      "name": "setPaused",
      "outputs": [],
      "payable": false,
      "stateMutability": "nonpayable",
      "type": "function"
    },
    {
      "constant": true,
      "inputs": [
        {
          "internalType": "bytes4",
          "name": "interfaceId",
          "type": "bytes4"
        }
      ],
      "name": "supportsInterface",
      "outputs": [
        {
          "internalType": "bool",
          "name": "",
          "type": "bool"
        }
      ],
      "payable": false,
      "stateMutability": "view",
      "type": "function"
    },
    {
      "constant": true,
      "inputs": [],
      "name": "symbol",
      "outputs": [
        {
          "internalType": "string",
          "name": "",
          "type": "string"
        }
      ],
      "payable": false,
      "stateMutability": "view",
      "type": "function"
    },
    {
      "constant": true,
      "inputs": [
        {
          "internalType": "uint256",
          "name": "index",
          "type": "uint256"
        }
      ],
      "name": "tokenByIndex",
      "outputs": [
        {
          "internalType": "uint256",
          "name": "",
          "type": "uint256"
        }
      ],
      "payable": false,
      "stateMutability": "view",
      "type": "function"
    },
    {
      "constant": true,
      "inputs": [
        {
          "internalType": "address",
          "name": "owner",
          "type": "address"
        },
        {
          "internalType": "uint256",
          "name": "index",
          "type": "uint256"
        }
      ],
      "name": "tokenOfOwnerByIndex",
      "outputs": [
        {
          "internalType": "uint256",
          "name": "",
          "type": "uint256"
        }
      ],
      "payable": false,
      "stateMutability": "view",
      "type": "function"
    },
    {
      "constant": true,
      "inputs": [
        {
          "internalType": "uint256",
          "name": "tokenId",
          "type": "uint256"
        }
      ],
      "name": "tokenURI",
      "outputs": [
        {
          "internalType": "string",
          "name": "",
          "type": "string"
        }
      ],
      "payable": false,
      "stateMutability": "view",
      "type": "function"
    },
    {
      "constant": true,
      "inputs": [],
      "name": "totalSupply",
      "outputs": [
        {
          "internalType": "uint256",
          "name": "",
          "type": "uint256"
        }
      ],
      "payable": false,
      "stateMutability": "view",
      "type": "function"
    },
    {
      "constant": false,
      "inputs": [
        {
          "internalType": "address",
          "name": "from",
          "type": "address"
        },
        {
          "internalType": "address",
          "name": "to",
          "type": "address"
        },
        {
          "internalType": "uint256",
          "name": "tokenId",
          "type": "uint256"
        }
      ],
      "name": "transferFrom",
      "outputs": [],
      "payable": false,
      "stateMutability": "nonpayable",
      "type": "function"
    },
    {
      "constant": false,
      "inputs": [
        {
          "internalType": "address payable",
          "name": "newOwner",
          "type": "address"
        }
      ],
      "name": "transferOwnership",
      "outputs": [],
      "payable": false,
      "stateMutability": "nonpayable",
      "type": "function"
    },
    {
      "constant": false,
      "inputs": [
        {
          "internalType": "address",
          "name": "to",
          "type": "address"
        },
        {
          "internalType": "uint256[2]",
          "name": "a",
          "type": "uint256[2]"
        },
        {
          "internalType": "uint256[2]",
          "name": "a_p",
          "type": "uint256[2]"
        },
        {
          "internalType": "uint256[2][2]",
          "name": "b",
          "type": "uint256[2][2]"
        },
        {
          "internalType": "uint256[2]",
          "name": "b_p",
          "type": "uint256[2]"
        },
        {
          "internalType": "uint256[2]",
          "name": "c",
          "type": "uint256[2]"
        },
        {
          "internalType": "uint256[2]",
          "name": "c_p",
          "type": "uint256[2]"
        },
        {
          "internalType": "uint256[2]",
          "name": "h",
          "type": "uint256[2]"
        },
        {
          "internalType": "uint256[2]",
          "name": "k",
          "type": "uint256[2]"
        },
        {
          "internalType": "uint256[2]",
          "name": "input",
          "type": "uint256[2]"
        }
      ],
      "name": "addSolution",
      "outputs": [],
      "payable": false,
      "stateMutability": "nonpayable",
      "type": "function"
    },
    {
      "constant": false,
      "inputs": [
        {
          "internalType": "address",
          "name": "to",
          "type": "address"
        },
        {
          "internalType": "uint256",
          "name": "tokenId",
          "type": "uint256"
        },
        {
          "internalType": "uint256[2]",
          "name": "a",
          "type": "uint256[2]"
        },
        {
          "internalType": "uint256[2]",
          "name": "a_p",
          "type": "uint256[2]"
        },
        {
          "internalType": "uint256[2][2]",
          "name": "b",
          "type": "uint256[2][2]"
        },
        {
          "internalType": "uint256[2]",
          "name": "b_p",
          "type": "uint256[2]"
        },
        {
          "internalType": "uint256[2]",
          "name": "c",
          "type": "uint256[2]"
        },
        {
          "internalType": "uint256[2]",
          "name": "c_p",
          "type": "uint256[2]"
        },
        {
          "internalType": "uint256[2]",
          "name": "h",
          "type": "uint256[2]"
        },
        {
          "internalType": "uint256[2]",
          "name": "k",
          "type": "uint256[2]"
        },
        {
          "internalType": "uint256[2]",
          "name": "input",
          "type": "uint256[2]"
        }
      ],
      "name": "mintNFT",
      "outputs": [],
      "payable": false,
      "stateMutability": "nonpayable",
      "type": "function"
    }
  ],
  "bytecode": "0x60e0604052603f60808181529062002bd660a0398051620000299160139160209091019062000413565b503480156200003757600080fd5b5060405162002c1538038062002c15833981810160405260608110156200005d57600080fd5b8151602083018051604051929492938301929190846401000000008211156200008557600080fd5b9083019060208201858111156200009b57600080fd5b8251640100000000811182820188101715620000b657600080fd5b82525081516020918201929091019080838360005b83811015620000e5578181015183820152602001620000cb565b50505050905090810190601f168015620001135780820380516001836020036101000a031916815260200191505b50604052602001805160405193929190846401000000008211156200013757600080fd5b9083019060208201858111156200014d57600080fd5b82516401000000008111828201881017156200016857600080fd5b82525081516020918201929091019080838360005b83811015620001975781810151838201526020016200017d565b50505050905090810190601f168015620001c55780820380516001836020036101000a031916815260200191505b5060138054602060026001831615610100026000190190921691909104601f810182900482028401820160405280845288965087955086945085939291830182828015620002575780601f106200022b5761010080835404028352916020019162000257565b820191906000526020600020905b8154815290600101906020018083116200023957829003601f168201915b5050600080546001600160a01b03191633178082556040516001600160a01b039190911694509092507f5c486528ec3e3f0ea91181cff8116f02bfa350e03b8b6f12e00765adbb5af85c91508290a36000805460ff60a01b19169081905560408051600160a01b90920460ff16151582525133917fc39e7237bfff8744cf3c13bd4123d4542cd1803eebff9b19bb09ea990a48d93e919081900360200190a2620003116301ffc9a760e01b6001600160e01b03620003d316565b6200032c6380ac58cd60e01b6001600160e01b03620003d316565b6200034763780e9d6360e01b6001600160e01b03620003d316565b82516200035c90600f90602086019062000413565b5081516200037290601090602085019062000413565b5080516200038890601190602084019062000413565b50620003a4635b5e139f60e01b6001600160e01b03620003d316565b5050601480546001600160a01b0319166001600160a01b03979097169690961790955550620004b89350505050565b6001600160e01b03198082161415620003eb57600080fd5b6001600160e01b0319166000908152600160208190526040909120805460ff19169091179055565b828054600181600116156101000203166002900490600052602060002090601f016020900481019282601f106200045657805160ff191683800117855562000486565b8280016001018555821562000486579182015b828111156200048657825182559160200191906001019062000469565b506200049492915062000498565b5090565b620004b591905b808211156200049457600081556001016200049f565b90565b61270e80620004c86000396000f3fe608060405234801561001057600080fd5b50600436106101b95760003560e01c80634f6ccce7116100f9578063a22cb46511610097578063c87b56dd11610071578063c87b56dd14610af9578063d547cfb714610b16578063e985e9c514610b1e578063f2fde38b14610b4c576101b9565b8063a22cb4651461082e578063b88d4fde1461085c578063c1a542b514610922576101b9565b8063715018a6116100d3578063715018a61461080e578063893d20e8146108165780638f32d59b1461081e57806395d89b4114610826576101b9565b80634f6ccce7146107ae5780636352211e146107cb57806370a08231146107e8576101b9565b806323b872dd1161016657806336d47d951161014057806336d47d951461043d57806338bbfa501461061857806340c10f191461074c57806342842e0e14610778576101b9565b806323b872dd1461032e57806327dc297e146103645780632f745c5914610411576101b9565b8063095ea7b311610197578063095ea7b3146102c757806316c38b3c146102f557806318160ddd14610314576101b9565b806301ffc9a7146101be57806306fdde0314610211578063081812fc1461028e575b600080fd5b6101fd600480360360208110156101d457600080fd5b50357fffffffff0000000000000000000000000000000000000000000000000000000016610b72565b604080519115158252519081900360200190f35b610219610bad565b6040805160208082528351818301528351919283929083019185019080838360005b8381101561025357818101518382015260200161023b565b50505050905090810190601f1680156102805780820380516001836020036101000a031916815260200191505b509250505060405180910390f35b6102ab600480360360208110156102a457600080fd5b5035610c44565b604080516001600160a01b039092168252519081900360200190f35b6102f3600480360360408110156102dd57600080fd5b506001600160a01b038135169060200135610c5f565b005b6102f36004803603602081101561030b57600080fd5b50351515610d74565b61031c610e40565b60408051918252519081900360200190f35b6102f36004803603606081101561034457600080fd5b506001600160a01b03813581169160208101359091169060400135610e46565b6102f36004803603604081101561037a57600080fd5b8135919081019060408101602082013564010000000081111561039c57600080fd5b8201836020820111156103ae57600080fd5b803590602001918460018302840111640100000000831117156103d057600080fd5b91908080601f016020809104026020016040519081016040528093929190818152602001838380828437600092019190915250929550610e69945050505050565b61031c6004803603604081101561042757600080fd5b506001600160a01b038135169060200135610e89565b6102f360048036036102c081101561045457600080fd5b6040805180820182526001600160a01b038435169360208101359381019290916080830191808401906002908390839080828437600092019190915250506040805180820182529295949381810193925090600290839083908082843760009201829052506040805180820190915293969594608081019493509150600290835b8282101561051357604080518082018252908084028601906002908390839080828437600092019190915250505081526001909101906020016104d5565b5050604080518082018252939695948181019493509150600290839083908082843760009201919091525050604080518082018252929594938181019392509060029083908390808284376000920191909152505060408051808201825292959493818101939250906002908390839080828437600092019190915250506040805180820182529295949381810193925090600290839083908082843760009201919091525050604080518082018252929594938181019392509060029083908390808284376000920191909152505060408051808201825292959493818101939250906002908390839080828437600092019190915250919450610ed69350505050565b6102f36004803603606081101561062e57600080fd5b8135919081019060408101602082013564010000000081111561065057600080fd5b82018360208201111561066257600080fd5b8035906020019184600183028401116401000000008311171561068457600080fd5b91908080601f01602080910402602001604051908101604052809392919081815260200183838082843760009201919091525092959493602081019350359150506401000000008111156106d757600080fd5b8201836020820111156106e957600080fd5b8035906020019184600183028401116401000000008311171561070b57600080fd5b91908080601f016020809104026020016040519081016040528093929190818152602001838380828437600092019190915250929550610e64945050505050565b6101fd6004803603604081101561076257600080fd5b506001600160a01b038135169060200135610f43565b6102f36004803603606081101561078e57600080fd5b506001600160a01b03813581169160208101359091169060400135610fba565b61031c600480360360208110156107c457600080fd5b5035610fd5565b6102ab600480360360208110156107e157600080fd5b5035611009565b61031c600480360360208110156107fe57600080fd5b50356001600160a01b0316611024565b6102f361104b565b6102ab6110ee565b6101fd6110fd565b61021961110e565b6102f36004803603604081101561084457600080fd5b506001600160a01b038135169060200135151561116f565b6102f36004803603608081101561087257600080fd5b6001600160a01b038235811692602081013590911691604082013591908101906080810160608201356401000000008111156108ad57600080fd5b8201836020820111156108bf57600080fd5b803590602001918460018302840111640100000000831117156108e157600080fd5b91908080601f0160208091040260200160405190810160405280939291908181526020018383808284376000920191909152509295506111f3945050505050565b6102f360048036036102a081101561093957600080fd5b6040805180820182526001600160a01b0384351693928301929160608301919060208401906002908390839080828437600092019190915250506040805180820182529295949381810193925090600290839083908082843760009201829052506040805180820190915293969594608081019493509150600290835b828210156109f457604080518082018252908084028601906002908390839080828437600092019190915250505081526001909101906020016109b6565b50506040805180820182529396959481810194935091506002908390839080828437600092019190915250506040805180820182529295949381810193925090600290839083908082843760009201919091525050604080518082018252929594938181019392509060029083908390808284376000920191909152505060408051808201825292959493818101939250906002908390839080828437600092019190915250506040805180820182529295949381810193925090600290839083908082843760009201919091525050604080518082018252929594938181019392509060029083908390808284376000920191909152509194506112199350505050565b61021960048036036020811015610b0f57600080fd5b5035611622565b6102196116d5565b6101fd60048036036040811015610b3457600080fd5b506001600160a01b0381358116916020013516611736565b6102f360048036036020811015610b6257600080fd5b50356001600160a01b0316611764565b7fffffffff00000000000000000000000000000000000000000000000000000000811660009081526001602052604090205460ff165b919050565b600f8054604080516020601f6002600019610100600188161502019095169490940493840181900481028201810190925282815260609390929091830182828015610c395780601f10610c0e57610100808354040283529160200191610c39565b820191906000526020600020905b815481529060010190602001808311610c1c57829003601f168201915b505050505090505b90565b6000908152600360205260409020546001600160a01b031690565b6000818152600260205260409020546001600160a01b0383811691161415610cb85760405162461bcd60e51b81526004018080602001828103825260228152602001806126b86022913960400191505060405180910390fd5b6000818152600260205260409020546001600160a01b03163314610d0d5760405162461bcd60e51b815260040180806020018281038252602981526020018061268f6029913960400191505060405180910390fd5b600081815260036020908152604080832080546001600160a01b0319166001600160a01b038781169182179092556002909352818420549151859492909116917f8c5be1e5ebec7d5bd14f71427d1e84f3dd0314c0f7b2291e5b200ac8c7c3b92591a45050565b60005460ff600160a01b9091041615158115151415610dc45760405162461bcd60e51b815260040180806020018281038252602181526020018061266e6021913960400191505060405180910390fd5b60008054821515600160a01b9081027fffffffffffffffffffffff00ffffffffffffffffffffffffffffffffffffffff9092169190911791829055604080519190920460ff1615158152905133917fc39e7237bfff8744cf3c13bd4123d4542cd1803eebff9b19bb09ea990a48d93e919081900360200190a250565b60085490565b610e5033826117c9565b610e5957600080fd5b610e64838383611828565b505050565b604080516000815260208101909152610e859083908390610e64565b5050565b6000610e9483611024565b8210610e9f57600080fd5b6001600160a01b0383166000908152600660205260409020805483908110610ec357fe5b9060005260206000200154905092915050565b610ee88b8a8a8a8a8a8a8a8a8a611219565b610ef28b8b610f43565b50604080518b81526001600160a01b038d16602082015281517fcae919fa60d0c9867c5b3e0a9529934bca78c09d353736e3327f74837594adc5929181900390910190a15050505050505050505050565b6000610f4d6110fd565b610f9e576040805162461bcd60e51b815260206004820152601760248201527f43616c6c6572206973206e6f7420746865206f776e6572000000000000000000604482015290519081900360640190fd5b610fa88383611847565b610fb182611864565b50600192915050565b610e64838383604051806020016040528060008152506111f3565b6000610fdf610e40565b8210610fea57600080fd5b60088281548110610ff757fe5b90600052602060002001549050919050565b6000908152600260205260409020546001600160a01b031690565b6001600160a01b038116600090815260046020526040812061104590611939565b92915050565b6110536110fd565b6110a4576040805162461bcd60e51b815260206004820152601760248201527f43616c6c6572206973206e6f7420746865206f776e6572000000000000000000604482015290519081900360640190fd5b600080546040516001600160a01b03909116907f5c486528ec3e3f0ea91181cff8116f02bfa350e03b8b6f12e00765adbb5af85c908390a3600080546001600160a01b0319169055565b6000546001600160a01b031690565b6000546001600160a01b0316331490565b60108054604080516020601f6002600019610100600188161502019095169490940493840181900481028201810190925282815260609390929091830182828015610c395780601f10610c0e57610100808354040283529160200191610c39565b6001600160a01b03821633141561118557600080fd5b3360008181526005602090815260408083206001600160a01b03871680855290835292819020805460ff1916861515908117909155815190815290519293927f17307eab39ab6107e8899845ad3d59bd9653f200f220920489ca2b5937696c31929181900390910190a35050565b6111fe848484610e46565b61120a8484848461193d565b61121357600080fd5b50505050565b61122a898989898989898989611a88565b61127b576040805162461bcd60e51b815260206004820152601660248201527f536f6c7574696f6e20616c726561647920657869737400000000000000000000604482015290519081900360640190fd5b601460009054906101000a90046001600160a01b03166001600160a01b031663fe01ff628a8a8a8a8a8a8a8a8a6040518a63ffffffff1660e01b8152600401808a600260200280838360005b838110156112df5781810151838201526020016112c7565b5050505090500189600260200280838360005b8381101561130a5781810151838201526020016112f2565b505050509050018860026000925b818410156113585760208402830151604080838360005b8381101561134757818101518382015260200161132f565b505050509050019260010192611318565b9250505087600260200280838360005b83811015611380578181015183820152602001611368565b5050505090500186600260200280838360005b838110156113ab578181015183820152602001611393565b5050505090500185600260200280838360005b838110156113d65781810151838201526020016113be565b5050505090500184600260200280838360005b838110156114015781810151838201526020016113e9565b5050505090500183600260200280838360005b8381101561142c578181015183820152602001611414565b5050505090500182600260200280838360005b8381101561145757818101518382015260200161143f565b505050509050019950505050505050505050602060405180830381600087803b15801561148357600080fd5b505af1158015611497573d6000803e3d6000fd5b505050506040513d60208110156114ad57600080fd5b5051611500576040805162461bcd60e51b815260206004820152601260248201527f536f6c7574696f6e206e6f742076616c69640000000000000000000000000000604482015290519081900360640190fd5b60006115138a8a8a8a8a8a8a8a8a611ad3565b6040805180820182528281526001600160a01b03808f16602080840182815260158054600181810183556000928352965160029091027f55f448fdea98c4d29eb340757ef0a66cd03dbb9538908a6a81d96026b71ec47581019190915591517f55f448fdea98c4d29eb340757ef0a66cd03dbb9538908a6a81d96026b71ec47690920180549286166001600160a01b0319938416179055865180880188528881528084018581528983526016855291889020905181559051950180549590941694169390931790915582518481529182015281519293507f078793128cefb19aac38a33f9e5df39f67716907f6d747e8065545699e0b2b8d929081900390910190a15050505050505050505050565b606061162d82611cbb565b61163657600080fd5b60008281526012602090815260409182902080548351601f6002600019610100600186161502019093169290920491820184900484028101840190945280845290918301828280156116c95780601f1061169e576101008083540402835291602001916116c9565b820191906000526020600020905b8154815290600101906020018083116116ac57829003601f168201915b50505050509050919050565b60118054604080516020601f6002600019610100600188161502019095169490940493840181900481028201810190925282815260609390929091830182828015610c395780601f10610c0e57610100808354040283529160200191610c39565b6001600160a01b03918216600090815260056020908152604080832093909416825291909152205460ff1690565b61176c6110fd565b6117bd576040805162461bcd60e51b815260206004820152601760248201527f43616c6c6572206973206e6f7420746865206f776e6572000000000000000000604482015290519081900360640190fd5b6117c681611cd8565b50565b6000806117d583611009565b9050806001600160a01b0316846001600160a01b031614806118105750836001600160a01b031661180584610c44565b6001600160a01b0316145b8061182057506118208185611736565b949350505050565b611833838383611d8e565b61183d8382611e6e565b610e648282611f63565b6118518282611fa1565b61185b8282611f63565b610e85816120d2565b61186d81611cbb565b61187657600080fd5b60118054604080516020601f6002600019610100600188161502019095169490940493840181900481028201810190925282815261191693909290918301828280156119035780601f106118d857610100808354040283529160200191611903565b820191906000526020600020905b8154815290600101906020018083116118e657829003601f168201915b505050505061191183612116565b6121f3565b60008281526012602090815260409091208251610e8593919291909101906125b5565b5490565b6000611951846001600160a01b0316612236565b61195d57506001611820565b604051630a85bd0160e11b815233600482018181526001600160a01b03888116602485015260448401879052608060648501908152865160848601528651600095928a169463150b7a029490938c938b938b939260a4019060208501908083838e5b838110156119d75781810151838201526020016119bf565b50505050905090810190601f168015611a045780820380516001836020036101000a031916815260200191505b5095505050505050602060405180830381600087803b158015611a2657600080fd5b505af1158015611a3a573d6000803e3d6000fd5b505050506040513d6020811015611a5057600080fd5b50517fffffffff0000000000000000000000000000000000000000000000000000000016630a85bd0160e11b14915050949350505050565b60008080611a9d8c8c8c8c8c8c8c8c8c611ad3565b6000818152601660205260409020600101549091506001600160a01b0316611ac457600191505b509a9950505050505050505050565b6000898989898989898989604051602001808a600260200280838360005b83811015611b09578181015183820152602001611af1565b5050505090500189600260200280838360005b83811015611b34578181015183820152602001611b1c565b505050509050018860026000925b81841015611b825760208402830151604080838360005b83811015611b71578181015183820152602001611b59565b505050509050019260010192611b42565b9250505087600260200280838360005b83811015611baa578181015183820152602001611b92565b5050505090500186600260200280838360005b83811015611bd5578181015183820152602001611bbd565b5050505090500185600260200280838360005b83811015611c00578181015183820152602001611be8565b5050505090500184600260200280838360005b83811015611c2b578181015183820152602001611c13565b5050505090500183600260200280838360005b83811015611c56578181015183820152602001611c3e565b5050505090500182600260200280838360005b83811015611c81578181015183820152602001611c69565b5050505090500199505050505050505050506040516020818303038152906040528051906020012060001c90509998505050505050505050565b6000908152600260205260409020546001600160a01b0316151590565b6001600160a01b038116611d33576040805162461bcd60e51b815260206004820152601060248201527f4e65772061646472657373206e756c6c00000000000000000000000000000000604482015290519081900360640190fd5b600080546040516001600160a01b03808516939216917f5c486528ec3e3f0ea91181cff8116f02bfa350e03b8b6f12e00765adbb5af85c91a3600080546001600160a01b0319166001600160a01b0392909216919091179055565b826001600160a01b0316611da182611009565b6001600160a01b031614611db457600080fd5b6001600160a01b038216611dc757600080fd5b611dd08161226d565b6001600160a01b0383166000908152600460205260409020611df1906122a8565b6001600160a01b0382166000908152600460205260409020611e12906122bf565b60008181526002602052604080822080546001600160a01b0319166001600160a01b0386811691821790925591518493918716917fddf252ad1be2c89b69c2b068fc378daa952ba7f163c4a11628f55a4df523b3ef91a4505050565b6001600160a01b038216600090815260066020526040812054611e9890600163ffffffff6122c816565b600083815260076020526040902054909150808214611f33576001600160a01b0384166000908152600660205260408120805484908110611ed557fe5b906000526020600020015490508060066000876001600160a01b03166001600160a01b031681526020019081526020016000208381548110611f1357fe5b600091825260208083209091019290925591825260079052604090208190555b6001600160a01b0384166000908152600660205260409020805490611f5c906000198301612633565b5050505050565b6001600160a01b0390911660009081526006602081815260408084208054868652600784529185208290559282526001810183559183529091200155565b6001600160a01b038216611ffc576040805162461bcd60e51b815260206004820152600f60248201527f496e76616c696420616464726573730000000000000000000000000000000000604482015290519081900360640190fd5b61200581611cbb565b15612057576040805162461bcd60e51b815260206004820152601560248201527f546f6b656e496420616c72656164792065786973740000000000000000000000604482015290519081900360640190fd5b600081815260026020908152604080832080546001600160a01b0319166001600160a01b038716908117909155835260049091529020612096906122bf565b60405181906001600160a01b038416906000907fddf252ad1be2c89b69c2b068fc378daa952ba7f163c4a11628f55a4df523b3ef908290a45050565b600880546000838152600960205260408120829055600182018355919091527ff3f7a9fe364faab93b216da50a3214154f22a0a2b415b23a84c8169e8b636ee30155565b606081612157575060408051808201909152600181527f30000000000000000000000000000000000000000000000000000000000000006020820152610ba8565b8160005b811561216f57600101600a8204915061215b565b6060816040519080825280601f01601f19166020018201604052801561219c576020820181803883390190505b50905060001982015b85156121ea57600a860660300160f81b828280600190039350815181106121c857fe5b60200101906001600160f81b031916908160001a905350600a860495506121a5565b50949350505050565b606061222f838360405180602001604052806000815250604051806020016040528060008152506040518060200160405280600081525061230a565b9392505050565b6000813f7fc5d2460186f7233c927e7db2dcc703c0e500b653ca82273b7bfad8045d85a47081158015906118205750141592915050565b6000818152600360205260409020546001600160a01b0316156117c657600090815260036020526040902080546001600160a01b0319169055565b80546122bb90600163ffffffff6122c816565b9055565b80546001019055565b600061222f83836040518060400160405280601e81526020017f536166654d6174683a207375627472616374696f6e206f766572666c6f77000081525061251e565b6060808690506060869050606086905060608690506060869050606081518351855187518951010101016040519080825280601f01601f19166020018201604052801561235e576020820181803883390190505b509050806000805b88518110156123b75788818151811061237b57fe5b602001015160f81c60f81b83838060010194508151811061239857fe5b60200101906001600160f81b031916908160001a905350600101612366565b5060005b875181101561240c578781815181106123d057fe5b602001015160f81c60f81b8383806001019450815181106123ed57fe5b60200101906001600160f81b031916908160001a9053506001016123bb565b5060005b86518110156124615786818151811061242557fe5b602001015160f81c60f81b83838060010194508151811061244257fe5b60200101906001600160f81b031916908160001a905350600101612410565b5060005b85518110156124b65785818151811061247a57fe5b602001015160f81c60f81b83838060010194508151811061249757fe5b60200101906001600160f81b031916908160001a905350600101612465565b5060005b845181101561250b578481815181106124cf57fe5b602001015160f81c60f81b8383806001019450815181106124ec57fe5b60200101906001600160f81b031916908160001a9053506001016124ba565b50909d9c50505050505050505050505050565b600081848411156125ad5760405162461bcd60e51b81526004018080602001828103825283818151815260200191508051906020019080838360005b8381101561257257818101518382015260200161255a565b50505050905090810190601f16801561259f5780820380516001836020036101000a031916815260200191505b509250505060405180910390fd5b505050900390565b828054600181600116156101000203166002900490600052602060002090601f016020900481019282601f106125f657805160ff1916838001178555612623565b82800160010185558215612623579182015b82811115612623578251825591602001919060010190612608565b5061262f929150612653565b5090565b815481835581811115610e6457600083815260209020610e649181019083015b610c4191905b8082111561262f576000815560010161265956fe4e6577207061757365642076616c756520616c72656164792061737369676e656453656e6465722061646472657373206e6f7420746865206f776e6572206f662074686520746f6b656e5472616e73666572206164647265737320616c726561647920746865206f776e6572a265627a7a723158205dcad49a72027302f44f49c17c01122c60e38d31860d59a766703f13af401dc864736f6c6343000510003268747470733a2f2f73332d75732d776573742d322e616d617a6f6e6177732e636f6d2f756461636974792d626c6f636b636861696e2f63617073746f6e652f",
  "source": "pragma solidity ^0.5.0;\n\nimport './ERC721Mintable.sol';\n\n// DONE define another contract named SolnSquareVerifier that inherits from your ERC721Mintable class\ncontract SolnSquareVerifier is MyCustomERC721Token {\n\n    // FlightSuretyData contract\n    VerifierInterface verifierInterface;\n\n    // DONE define a solutions struct that can hold an index & an address\n    struct Solution {\n        uint256 index;\n        address solutionAddress;\n    }\n\n    // DONE define an array of the above struct\n    Solution[] solutions;\n\n    // DONE define a mapping to store unique solutions submitted\n    mapping(uint256 => Solution) private uniqueSubmittedSolutions;\n\n    // DONE Create an event to emit when a solution is added\n    event SolutionAdded(uint256 solutionIndex, address solutionAddress);\n\n    // Event to inform about a token was mint\n    event TokenMint(uint256 tokenId, address to);\n\n    constructor(address verifierAddress, string memory name, string memory symbol) MyCustomERC721Token(name, symbol) public {\n        verifierInterface = VerifierInterface(verifierAddress);\n    }\n\n    // DONE Create a function to add the solutions to the array and emit the event\n    function addSolution\n    ( \n        address to,\n        uint[2] memory a,\n        uint[2] memory a_p,\n        uint[2][2] memory b,\n        uint[2] memory b_p,\n        uint[2] memory c,\n        uint[2] memory c_p,\n        uint[2] memory h,\n        uint[2] memory k,\n        uint[2] memory input\n    ) \n        public \n    {\n        // Check if solution already exist\n        require(isUniqueSolution(a, a_p, b, b_p, c, c_p, h, k, input), 'Solution already exist');\n\n        // Check if solution is valid\n        require(verifierInterface.verifyTx(a, a_p, b, b_p, c, c_p, h, k, input), \"Solution not valid\");\n\n        // Calculate the hash of the solution which will be the index in the mapping\n        uint256 indexHash = calculateHashIndexOfSolution(a, a_p, b, b_p, c, c_p, h, k, input);\n\n        // Add solution to the array\n        solutions.push(Solution({index: indexHash, solutionAddress: to}));\n\n        // add solution to mapping\n        uniqueSubmittedSolutions[indexHash] = Solution({index: indexHash, solutionAddress: to});\n\n        // Emit proper event\n        emit SolutionAdded(indexHash, to);\n    }\n\n    // DONE Create a function to mint new NFT only after the solution has been verified\n    //  - make sure the solution is unique (has not been used before)\n    //  - make sure you handle metadata as well as tokenSuplly\n    function mintNFT\n    (\n        address to,\n        uint256 tokenId,\n        uint[2] memory a,\n        uint[2] memory a_p,\n        uint[2][2] memory b,\n        uint[2] memory b_p,\n        uint[2] memory c,\n        uint[2] memory c_p,\n        uint[2] memory h,\n        uint[2] memory k,\n        uint[2] memory input\n    )\n        public\n    {\n        // Add solution to the array and mapping. In addSolution there are verify solution check and unique solution check\n        addSolution(to, a, a_p, b, b_p, c, c_p, h, k, input);\n\n        // Mint the token. Metadata are managed inside mint function\n        super.mint(to, tokenId);\n\n        // Emit proper event\n        emit TokenMint(tokenId, to);\n    }\n    \n\n    function isUniqueSolution\n    (\n        uint[2] memory a,\n        uint[2] memory a_p,\n        uint[2][2] memory b,\n        uint[2] memory b_p,\n        uint[2] memory c,\n        uint[2] memory c_p,\n        uint[2] memory h,\n        uint[2] memory k,\n        uint[2] memory input\n    )\n        private\n        view\n        returns(bool)\n    {\n        bool isUnique = false;\n        uint256 indexHash = calculateHashIndexOfSolution(a, a_p, b, b_p, c, c_p, h, k, input);\n        if (uniqueSubmittedSolutions[indexHash].solutionAddress == address(0)) {\n            isUnique = true;\n        }\n        return isUnique;\n    }\n\n    function calculateHashIndexOfSolution\n    (\n        uint[2] memory a,\n        uint[2] memory a_p,\n        uint[2][2] memory b,\n        uint[2] memory b_p,\n        uint[2] memory c,\n        uint[2] memory c_p,\n        uint[2] memory h,\n        uint[2] memory k,\n        uint[2] memory input\n    )\n        private\n        pure\n        returns (uint256)\n    {\n        return uint256(keccak256(abi.encodePacked(a, a_p, b, b_p, c, c_p, h, k, input)));\n    }\n}\n\n// DONE define a contract call to the zokrates generated solidity contract <Verifier> or <renamedVerifier>\n// ABI\ncontract VerifierInterface {\n    function verifyTx(\n        uint[2] memory,\n        uint[2] memory,\n        uint[2][2] memory,\n        uint[2] memory,\n        uint[2] memory,\n        uint[2] memory,\n        uint[2] memory,\n        uint[2] memory,\n        uint[2] memory\n    ) public returns (bool);\n}",
  "sourcePath": "/Users/saro/Desktop/Blockchain/Project5/eth-contracts/contracts/SolnSquareVerifier.sol",
  "compiler": {
    "name": "solc",
    "version": "0.5.16+commit.9c3226ce.Emscripten.clang"
  },
  "schemaVersion": "3.0.20",
  "updatedAt": "2020-01-11T09:54:55.108Z",
  "networkType": "ethereum",
  "devdoc": {
    "methods": {
      "baseTokenURI()": {
        "details": "Gets the token baseTokenURI",
        "return": "string representing the token baseTokenURI"
      },
      "isApprovedForAll(address,address)": {
        "details": "Tells whether an operator is approved by a given owner",
        "params": {
          "operator": "operator address which you want to query the approval of",
          "owner": "owner address which you want to query the approval of"
        },
        "return": "bool whether the given operator is approved by the given owner"
      },
      "name()": {
        "details": "Gets the token name",
        "return": "string representing the token name"
      },
      "setApprovalForAll(address,bool)": {
        "details": "Sets or unsets the approval of a given operator An operator is allowed to transfer all tokens of the sender on their behalf",
        "params": {
          "approved": "representing the status of the approval to be set",
          "to": "operator address to set the approval"
        }
      },
      "supportsInterface(bytes4)": {
        "details": "implement supportsInterface(bytes4) using a lookup table"
      },
      "symbol()": {
        "details": "Gets the token symbol",
        "return": "string representing the token symbol"
      },
      "tokenByIndex(uint256)": {
        "details": "Gets the token ID at a given index of all the tokens in this contract Reverts if the index is greater or equal to the total number of tokens",
        "params": {
          "index": "uint256 representing the index to be accessed of the tokens list"
        },
        "return": "uint256 token ID at the given index of the tokens list"
      },
      "tokenOfOwnerByIndex(address,uint256)": {
        "details": "Gets the token ID at a given index of the tokens list of the requested owner",
        "params": {
          "index": "uint256 representing the index to be accessed of the requested tokens list",
          "owner": "address owning the tokens list to be accessed"
        },
        "return": "uint256 token ID at the given index of the tokens list owned by the requested address"
      },
      "totalSupply()": {
        "details": "Gets the total amount of tokens stored by the contract",
        "return": "uint256 representing the total amount of tokens"
      }
    }
  },
  "userdoc": {
    "methods": {}
  }
}